:020000040800F2
:10000000000002206D090008690900088D7D0008C4
:100010006909000869090008690900080000000072
:100020000000000000000000000000006909000856
:10003000690900080000000069090008117D000836
:1000400069090008690900086909000869090008C8
:1000500069090008690900086909000869090008B8
:10006000690900086909000869090008396A000877
:10007000456A000891590008516A00085D6A000845
:10008000457A0008655F00086909000869090008E9
:100090006909000869090008690900086909000878
:1000A0006909000869090008690900086909000868
:1000B000690900086909000869090008995F0008D2
:1000C00069090008A55F000869090008E92101081D
:1000D0006909000835740008DD7400088975000896
:1000E00069090008690900080000000069090008A2
:1000F000690900086909000869090008F521010873
:100100006909000869090008690900086909000807
:1001100035760008E17600086909000869090008D9
:1001200069090008690900086909000869090008E7
:1001300069090008690900086909000869090008D7
:1001400000000000000000000000000000000000AF
:100150006909000869090008690900088D77000825
:10016000B15F000869090008217D0008457D00088D
:1001700069090008697D0008690900086909000823
:10018000690900086909000839780008E57800085D
:100190006909000869090008690900086909000877
:1001A0006909000869090008690900086909000867
:1001B0005967000869090008690900086909000809
:1001C0006909000869090008690900086909000847
:1001D0006909000869090008690900086909000837
:1001E0006909000869090008690900086909000827
:1001F0006909000869090008690900086909000817
:100200006909000869090008690900086909000806
:1002100069090008690900086909000869090008F6
:100220006909000869090008690900080000000060
:100230006909000869090008000000006909000850
:1002400069090008690900086909000869090008C6
:1002500069090008690900086909000869090008B6
:1002600069090008690900086909000869090008A6
:100270006909000869090008917900080000000078
:100280006909000869090008690900080000000000
:080290000000000069090008EC
:1002980010B5054C237833B9044B13B10448AFF3B8
:1002A80000800123237010BD080300240000000013
:1002B800A859010808B5034B1BB103490348AFF31C
:1002C800008008BD000000000C030024A8590108A4
:1002D80010F8012B11F8013B012A28BF9A42F7D0E8
:1002E800D01A704781F0004102E000BF83F000435C
:1002F80030B54FEA41044FEA430594EA050F08BFB9
:1003080090EA020F1FBF54EA000C55EA020C7FEA7C
:10031800645C7FEA655C00F0E2804FEA5454D4EBF9
:100328005555B8BF6D420CDD2C4480EA020281EAC3
:10033800030382EA000083EA010180EA020281EAFB
:100348000303362D88BF30BD11F0004F4FEA01314D
:100358004FF4801C4CEA113102D0404261EB41015C
:1003680013F0004F4FEA03334CEA133302D05242E2
:1003780063EB430394EA050F00F0A780A4F101049E
:10038800D5F1200E0DDB02FA0EFC22FA05F28018D8
:1003980041F1000103FA0EF2801843FA05F35941BE
:1003A8000EE0A5F120050EF1200E012A03FA0EFC3D
:1003B80028BF4CF0020C43FA05F3C01851EBE37167
:1003C80001F0004507D54FF0000EDCF1000C7EEB84
:1003D80000006EEB0101B1F5801F1BD3B1F5001FC2
:1003E8000CD349085FEA30004FEA3C0C04F10104E1
:1003F8004FEA445212F5800F80F09A80BCF1004F0A
:1004080008BF5FEA500C50F1000041EB045141EA8B
:10041800050130BD5FEA4C0C404141EB0101013C54
:1004280028BFB1F5801FE9D291F0000F04BF014643
:100438000020B1FA81F308BF2033A3F10B03B3F115
:1004480020020CDA0C3208DD02F1140CC2F10C02A5
:1004580001FA0CF021FA02F10CE002F11402D8BF03
:10046800C2F1200C01FA02F120FA0CFCDCBF41EACF
:100478000C019040E41AA2BF01EB0451294330BD9E
:100488006FEA04041F3C1CDA0C340EDC04F114047B
:10049800C4F1200220FA04F001FA02F340EA030052
:1004A80021FA04F345EA030130BDC4F10C04C4F198
:1004B800200220FA02F001FA04F340EA0300294678
:1004C80030BD21FA04F0294630BD94F0000F83F4C2
:1004D800801306BF81F480110134013D4EE77FEAA5
:1004E800645C18BF7FEA655C29D094EA050F08BFF1
:1004F80090EA020F05D054EA000C04BF19461046D2
:1005080030BD91EA030F1EBF0021002030BD5FEA15
:10051800545C05D14000494128BF41F0004130BD3D
:1005280014F580043CBF01F5801130BD01F0004591
:1005380045F0FE4141F470014FF0000030BD7FEA04
:10054800645C1ABF194610467FEA655C1CBF0B46FF
:10055800024650EA013406BF52EA033591EA030F16
:1005680041F4002130BD00BF90F0000F04BF00210E
:10057800704730B54FF4806404F132044FF0000541
:100588004FF0000150E700BF90F0000F04BF0021BA
:10059800704730B54FF4806404F1320410F0004520
:1005A80048BF40424FF000013EE700BF42004FEA1B
:1005B800E2014FEA31014FEA02701FBF12F07F4398
:1005C80093F07F4F81F06051704732F07F4208BF4F
:1005D800704793F07F4F04BF41F40021704730B556
:1005E8004FF4607401F0004521F000411CE700BFA2
:1005F80050EA010208BF704730B54FF000050AE025
:1006080050EA010208BF704730B511F0004502D525
:10061800404261EB41014FF4806404F132045FEA27
:10062800915C3FF4D8AE4FF003025FEADC0C18BFD0
:1006380003325FEADC0C18BF033202EBDC02C2F1C2
:10064800200300FA03FC20FA02F001FA03FE40EA54
:100658000E0021FA02F11444BDE600BF53B94AB9AD
:10066800002908BF00281CBF4FF0FF314FF0FF30B2
:1006780000F074B9ADF1080C6DE904CE00F006F88D
:10068800DDF804E0DDE9022304B070472DE9F04706
:10069800089D04468E46002B4DD18A42944669D95E
:1006A800B2FA82F252B101FA02F3C2F1200120FA41
:1006B80001F10CFA02FC41EA030E94404FEA1C488F
:1006C800210CBEFBF8F61FFA8CF708FB16E341EA8B
:1006D800034306FB07F199420AD91CEB030306F111
:1006E800FF3080F01F81994240F21C81023E634432
:1006F8005B1AA4B2B3FBF8F008FB103344EA0344D6
:1007080000FB07F7A7420AD91CEB040400F1FF33EA
:1007180080F00A81A74240F207816444023840EA27
:100728000640E41B00261DB1D4400023C5E9004360
:100738003146BDE8F0878B4209D9002D00F0EF80E3
:100748000026C5E9000130463146BDE8F087B3FA16
:1007580083F6002E4AD18B4202D3824200F2F980FE
:10076800841A61EB030301209E46002DE0D0C5E901
:10077800004EDDE702B9FFDEB2FA82F2002A40F04D
:100788009280A1EB0C014FEA1C471FFA8CFE012650
:10079800200CB1FBF7F307FB131140EA01410EFBF4
:1007A80003F0884208D91CEB010103F1FF3802D29B
:1007B800884200F2CB804346091AA4B2B1FBF7F095
:1007C80007FB101144EA01440EFB00FEA64508D9B8
:1007D8001CEB040400F1FF3102D2A64500F2BB80F5
:1007E8000846A4EB0E0440EA03409CE7C6F1200744
:1007F800B34022FA07FC4CEA030C20FA07F401FA8A
:1008080006F31C43F9404FEA1C4900FA06F3B1FB12
:10081800F9F8200C1FFA8CFE09FB181140EA014177
:1008280008FB0EF0884202FA06F20BD91CEB010114
:1008380008F1FF3A80F08880884240F28580A8F16C
:1008480002086144091AA4B2B1FBF9F009FB1011BE
:1008580044EA014100FB0EFE8E4508D91CEB01015C
:1008680000F1FF346CD28E456AD90238614440EAFF
:100878000840A0FB0294A1EB0E01A142C846A6467F
:1008880056D353D05DB1B3EB080261EB0E0101FA08
:1008980007F722FA06F3F1401F43C5E90071002665
:1008A8003146BDE8F087C2F12003D8400CFA02FCBB
:1008B80021FA03F3914001434FEA1C471FFA8CFECB
:1008C800B3FBF7F007FB10360B0C43EA064300FBBB
:1008D8000EF69E4204FA02F408D91CEB030300F159
:1008E800FF382FD29E422DD9023863449B1B89B210
:1008F800B3FBF7F607FB163341EA034106FB0EF399
:100908008B4208D91CEB010106F1FF3816D28B4245
:1009180014D9023E6144C91A46EA004638E72E4611
:10092800284605E70646E3E61846F8E64B45A9D209
:10093800B9EB020864EB0C0E0138A3E74646EAE778
:10094800204694E74046D1E7D0467BE7023B614426
:1009580032E7304609E76444023842E7704700BF8F
:10096800FEE700BF0B480C4A904203D0121A0B490D
:1009780014F03AF90A480B4A904203D0121A00219F
:1009880014F05AF907F0B0FB14F0FAF802F02CFB57
:10099800FEE700BF0000002408030024D459010822
:1009A80008030024E47D0324704700BF704700BF9C
:1009B800704700BFF7EE007A90ED037AB6EE000AB2
:1009C80077EEC77A37EEC00A704700BFB6EE007AF6
:1009D800D0ED036ADFED057A9FED050AF4EEC76AEC
:1009E800F1EE10FA20FE270A704700BF333333BFF9
:1009F8003333333F0000000090ED036AB0EE003B54
:100A0800BFEE007BB7EEC66AB6EE004BA6EE037BE0
:100A18009FED075BB7EEC70BB0EEC00AB7EEC00A92
:100A280030EE440B20EE050BB7EEC00B704700BF4D
:100A3800CDCCCCCCCCCCEC3F38B5074CA4F13005B0
:100A480054F8083C0322103C13B12146204698472D
:100A5800AC42F5D138BD00BFD40B0024D1ED007AEB
:100A68009FED037A034B67EE877AC3ED007A7047F0
:100A780000409C45F0BC0224D1ED007A9FED037A3A
:100A8800034B67EE877AC3ED007A70470000FA459A
:100A98008CBD0224014B0A681A6070479C4E0324DF
:100AA800704700BF704700BF704700BF90ED030A52
:100AB800D0ED047A20EE270A13F016BE10B50446CE
:100AC800006818B1A168091A13F0D6FA204610BDBB
:100AD80022B1012A00D1016000207047014B036058
:100AE800002070472451010822B1012A00D1016079
:100AF80000207047014B0360002070471C5101081B
:100B080022B1012A00D1016000207047014B036027
:100B1800002070472C51010881423FD083682DE99D
:100B2800F0430D46076883B00446A3EB0708D1E9F4
:100B38000019A9EB010646450FD84068C21B96422A
:100B48002DD8894504D03846324614F05BF827681A
:100B58003E44666003B0BDE8F083002E35D01D4BDF
:100B68009E4234D83046019113F097FA2768A3685B
:100B780005460199A3EB0708894503D03246284664
:100B880014F032F81FB14146384613F075FA2E4476
:100B98002560A660666003B0BDE8F08370473AB18F
:100BA800384614F02FF8D4E90070D5E90019C21BB3
:100BB80011444945CCD0A9EB010214F023F823686D
:100BC8001E44666003B0BDE8F0833546D4E713F0F1
:100BD8000DFB00BFFCFFFF7F2DE9F0418046064674
:100BE800A0F66C07D6F83807D6F83C570446A84252
:100BF8000BD0236818461BB1A168C91A13F03CFA38
:100C08000C34A542F5D1D6F8380720B1D6F84017EC
:100C1800091A13F031FAA6F59A76BE42E2D1404697
:100C2800BDE8F08110B50446006818B1A168091A3A
:100C380013F022FA204610BD2DE9F04FCF4D2DEDCF
:100C4800028BADF2F47D0FCD12AC12AE0FC40FCDF6
:100C58000FC495E80300274684E80300282013F012
:100C68001CFA814605463446103510360FCCBC4276
:100C780045F8100C45F80C1C45F8082C45F8043CC0
:100C8800F1D1012376ACB7EE008ABD4F03CE84F8CC
:100C9800703093AE286069600021BA486CAD04F0EA
:100CA8001DFE0146B848019103F02EF9DFEDB77A31
:100CB8000023DFEDB70A304620EE270A01991A46CD
:100CC80004F0EEFA84ED1E8AF0EE480A9FEDB80AA9
:100CD8000FCE0FC596E80F0085E80F0000226CA91B
:100CE800204604F079FB0DF5137E0DF5D87CB0EEA7
:100CF800480AF1EE000ABEE80F00ACE80F0096E8DB
:100D08000F0085E80F0084A800226CA904F064FB9A
:100D18003B7893A8002B00F0EA844FF07C53C4F88A
:100D2800983004F0DBFA84ED250A9A4E1CAD0FCEFC
:100D38000FC50FCE0FC596E8030085E803002820ED
:100D480013F0ABF90DF1700CAE46064602906546FD
:100D580010360CF1100C0FCD754546F8100C46F8FE
:100D68000C1C46F8082C46F8043CF0D101236CAD65
:100D78009FED8F8ABCE8030030607160194684F8E3
:100D88000C31804804F0AAFD01907F4803F0BCF8BC
:100D9800DFED7E7A0023BAA820EE270ADFED7C0A71
:100DA8001A460199064604F07BFA4FF07E53B0EEDE
:100DB800480ADFED790AC4F814310FCE0FC596E85A
:100DC8000F0085E80F0000226CA99DA804F004FB21
:100DD8000DF53A7E0DF5D87CB0EE480ADFED6E0AC7
:100DE800BEE80F00ACE80F0096E80F0085E80F009A
:100DF800ABA800226CA904F0EFFA3B78BAA8002B44
:100E080000F07F844FF07C53C4F8343104F066FA64
:100E180084ED4C0A614E26AD0FCE0FC50FCE0FC51F
:100E280096E8030085E80300282013F036F90DF151
:100E3800980CAE4606460390654610360CF1100C29
:100E48000FCD754546F8100C46F80C1C46F8082CD2
:100E580046F8043CF0D10125B7EE008A0DF561781B
:100E6800BCE8030030607160022184F8A8516CAEC0
:100E7800444804F033FD0190434803F045F8DFEDA2
:100E8800437A0023DFED420A20EE270A0199404603
:100E98001A4604F005FA84ED6C8AB3EE0E0ADFED0B
:100EA800400AB8E80F000FC698E80F0086E80F0060
:100EB8002A466CA9C4A86CAD04F08EFA0DF5617CC5
:100EC800B0EE480ADFED370ABCE80F000FC598E816
:100ED8000F0086E80F00D2A800226CA904F07CFA63
:100EE8003B78E1A8002B00F014842F4BC4F8D031D4
:100EF80004F0F4F984ED730A2C4E30AD0FCE0FC513
:100F08000FCE0FC596E8030085E80300282013F0EC
:100F1800C4F80DF1C00CAE4606460490654610367E
:100F28000CF1100C0FCD754546F8100C46F80C1C4A
:100F380046F8082C46F8043CF0D101236CADBCE817
:100F4800030084F844323060716003210D4804F0D6
:100F5800C5FC01900C4802F0D7FFDFED0C7A0023A6
:100F68000DF5846020EE270ADFED090A1A4601997B
:100F7800064604F095F94FF07E531BE0144F010824
:100F880024030024644E03244C4E03240000803BB9
:100F98006F12033B3C4F0108A4707D3F644F01086A
:100FA80000A00C4600409C463333333F8C4F010869
:100FB80000000000F0EE080A1FED030AC4F84C32E6
:100FC8000FCE0FC596E80F0085E80F0000226CA928
:100FD800EBA804F001FA0DF5846E0DF5D87CF0EE5F
:100FE800000A1FED0D0ABEE80F00ACE80F0096E8F6
:100FF8000F0085E80F00F9A800226CA904F0ECF9AD
:101008003B780DF58460002B00F08C834FF07D5306
:10101800C4F86C3204F062F984ED9A0AD54E3AAD00
:101028000FCE0FC50FCE0FC596E8030085E8030065
:10103800282013F032F80DF1E80CAE46064605906C
:10104800654610360CF1100C0FCD754546F8100C9E
:1010580046F80C1C46F8082C46F8043CF0D14FF032
:1010680001086CADBCE80300306071600421C2481F
:1010780084F8E08204F032FC0190C04802F044FF9A
:10108800DFEDBF7A00230DF2BC4020EE270ADFED2A
:10109800BD0A1A460199064604F002F94FF07E533C
:1010A800F3EE0E0A9FEDB80AC4F8E8320FCE0FC56A
:1010B80096E80F0085E80F0042466CA90DF5896097
:1010C80004F08AF90DF2BC4E0DF5D87CDFEDAF0ABD
:1010D8009FEDAF0ABEE80F00ACE80F0096E80F00DE
:1010E80085E80F000DF5906000226CA904F074F9F2
:1010F8003B780DF2BC40002B00F01D834FF07C5371
:10110800C4F8083304F0EAF884EDC10AA14E44ADEE
:101118000FCE0FC50FCE0FC596E8030085E8030074
:10112800282012F0BAFF0DF5887CAE4606460690D8
:10113800654610360CF1100C0FCD754546F8100CAD
:1011480046F80C1C46F8082C46F8043CF0D101235C
:101158006CAD9FED918ABCE8030084F87C33306065
:1011680071600521844804F0B9FB0190834802F0BE
:10117800CBFEDFED837A00230DF5AB6020EE270A66
:10118800DFED800A01991A46064604F089F8F7EE61
:10119800000AB0EE480AC4EDE10A0FCE0FC596E882
:1011A8000F0085E80F0000226CA90DF2E44004F05E
:1011B80013F90DF5AB6E0DF5D87CDFED780A9FEDD0
:1011C800780ABEE80F00ACE80F0096E80F0085E843
:1011D8000F000DF21C5000226CA904F0FDF83B78BA
:1011E8000DF5AB60002B00F0AF824FF07C53C4F8D4
:1011F800A43304F073F884EDE80A6A4E4EAD0FCEBE
:101208000FC50FCE0FC596E8030085E80300282018
:1012180012F043FF0DF59C7CAE46064607906546E6
:1012280010360CF1100C0FCD754546F8100C46F829
:101238000C1C46F8082C46F8043CF0D14FF0010885
:101248006CADBCE803003060716006214A4884F840
:10125800188404F043FB0190484802F055FEDFED86
:10126800487A00230DF2F45020EE270ADFED450AF4
:101278001A460199064604F013F84FF07E520DF510
:10128800BF63B1EE040ADFED4A0A1A600FCE0FC53C
:1012980096E80F0085E80F0042466CA90DF5B0608E
:1012A80004F09AF80DF2F45E0DF5D87CF0EE000A21
:1012B8009FED390ABEE80F00ACE80F0096E80F0072
:1012C80085E80F000DF5B76000226CA904F084F8DA
:1012D8003B780DF2F450002B00F058820DF5C363F3
:1012E800314A1A6003F0FAFF0DF2146383ED000A25
:1012F8002E4E58AD0FCE0FC50FCE0FC596E8030082
:1013080085E80300282012F0C8FE0DF5B07CAE4633
:1013180006460890654610360CF1100C0FCD754541
:1013280046F8100C46F80C1C46F8082C46F8043C05
:10133800F0D14FF001086CADBCE80300306071607B
:1013480007210D4884F8B48404F0C8FA01900B48CA
:1013580002F0DAFDDFED0A7A00230DF5D26020EE07
:10136800270ADFED080A1A460199064603F098FF96
:1013780020E000BFB44F0108644E03244C4E032400
:101388000000803B6F12033BCDCCCC3E00000046F2
:1013980000008042DC4F010800000000000000430C
:1013A8003333B33F045001080AD7A33C2C5001083B
:1013B80000007A454FF07E520DF29463B1EE040AB4
:1013C8005FED050A1A600FCE0FC596E80F0085E895
:1013D8000F0042466CA90DF21C6003F0FDFF0DF5ED
:1013E800D26E0DF5D87CF3EE040AB6EE000ABEE81C
:1013F8000F00ACE80F0096E80F0085E80F000DF22B
:10140800546000226CA903F0E7FF3B780DF5D26029
:10141800002B00F0C7810DF2B463CF4A1A6003F0C5
:101428005DFF0DF5D66383ED000ACC4E62AD0FCE9D
:101438000FC50FCE0FC596E8030085E803002820E6
:1014480012F02BFE0DF5C47C8046AE460646654676
:1014580010360CF1100C0FCD754546F8100C46F8F7
:101468000C1C46F8082C46F8043CF0D10123B7EED2
:10147800008A6CADBCE8030084F8503530607160B8
:101488000821B7480DF22C7604F028FA0190B548E7
:1014980002F03AFDDFEDB47A0023DFEDB40A20EE66
:1014A800270A01991A46304603F0FAFE0DF5E6635D
:1014B800F0EE480A9FEDAE0A83ED008A0FCE0FC505
:1014C80096E80F0085E80F0000226CA90DF5D7609B
:1014D80003F082FF0DF22C7E0DF5D87CF0EE480A61
:1014E800BFEE000ABEE80F00ACE80F0096E80F0058
:1014F80085E80F000DF5DE6000226CA903F06CFF93
:101508003B780DF22C70002B00F05781994B0DF5AC
:10151800EA62136003F0E2FE0DF24C7383ED000AF9
:10152800954E6CAD0FCE0FC50FCE0FC596E80300D4
:1015380085E8030028206CAD12F0AFFD0DF5E87EBC
:10154800844609902E460CF1100C10350FCE7645C6
:101558004CF8100C4CF80C1C4CF8082C4CF8043CBB
:10156800F0D14FF0010B0DF2547A03CD0AADCCF84F
:101578000000CCF804100921794884F8ECB504F08F
:10158800ADF90190774802F0BFFCDFED777A0023D0
:101598000DF5F96020EE270ADFED740A1A46019965
:1015A800064603F07DFE4FF07E530DF2CC72B1EE8D
:1015B800040ADFED720A13600FCE0FC596E80F001C
:1015C80085E80F005A460AA9504603F005FF0DF5B5
:1015D800F96E0DF1280CF0EE000A9FED650ABEE8E1
:1015E8000F00ACE80F0096E80F0085E80F000DF239
:1015F8008C700AA9002203F0EFFE3B780DF5F96024
:10160800002B00F0E6805E4B0DF2EC72136003F0E5
:1016180065FE0DF5FD6383ED000A5A4F3E68BB6811
:101628009B1BB3F5C36F42D24FF4C36012F035FD74
:1016380021464FF4C362044613F0D6FA386818B14D
:10164800B968091A12F018FD3C6004F5C364C7E9CB
:1016580001440998282112F00FFD4046282112F074
:101668000BFD0898282112F007FD0798282112F091
:1016780003FD0698282112F0FFFC0598282112F096
:10168800FBFC0498282112F0F7FC0398282112F09B
:10169800F3FC0298282112F0EFFC282148460DF2AD
:1016A800F47DBDEC028BBDE8F04F12F0E5BCD7F835
:1016B80004B0ABEB0602B2F5C36FC0F096809DACE8
:1016C80006F19C0A06F2B465AAF19C000AF19C0A8C
:1016D800A4F19C019C2213F087FA554504F19C045F
:1016E800F2D106F5C3665E45B3D07E60B1E703F07C
:1016F800F5FD4FF07C5384ED260AC4F89430FFF7CB
:1017080014BB03F0EBFD84ED4C8A84ED4D0AFFF722
:1017180081BB03F0E3FD1C4B84ED740AC4F8CC31A3
:10172800FFF7EABB03F0DAFD4FF07C5384ED9B0A28
:10173800C4F8683272E403F0D1FD4FF07C5384EDB5
:10174800C20AC4F80433E1E403F0C8FD84EDE88A72
:1017580084EDE90A51E500BFCDCCCC3E54500108D8
:10176800644E03244C4E03240000803B6F12033B5D
:10177800000000009A99993E7C50010800007A45C3
:10178800CDCC4C3E884E0324CDCCCC3D03F0A6FDF9
:101798000DF5C3634FF07C5283ED000A0DF214631C
:1017A8001A60A5E503F09AFD0DF2B463294A83EDAA
:1017B800000A0DF5D6631A6037E603F08FFD0DF5C4
:1017C800EA630DF24C7283ED000A4FF07C5313600C
:1017D800A6E603F083FD0DF2EC730DF5FD6283EDD3
:1017E800000A4FF07C53136017E7A3181A4C0193B3
:1017F800931003FB04F46AB19DAD9C36A5F19C01DE
:10180800A6F19C009C229C3513F0EEF9013C06F1F0
:101818009C06F3D1019B0DF5FE62934216D0019C04
:1018280000260E4BAAEB0405AD0803FB05F525F0D1
:1018380040439C2503FB0555A1190BEB06009C367C
:101848009C2213F0D1F9B542F6D1AB44C7F804B0E5
:10185800FFE600BFCDCC4C3E976FF996976FF9160F
:1018680070B56A4CB7EE007AD4ED015A94ED026A6D
:10187800D4ED036AC5EE867A2DED028B82B077EE41
:10188800A67AF4EEC77AF1EE10FAA8BF77EEC77A17
:10189800B0EE087AC4ED037AD4ED007AF4EE477A14
:1018A800FDEEE78AF1EE10FA00F08680B7EE007AD6
:1018B80037EE877ABDEEC77A17EE105A18EE903ACF
:1018C800F8EEE88A023377EEE88A04EBC3039868F7
:1018D800C10777D542105B6804EB6000A258D35863
:1018E8009847AB1CB0EE408A04EBC3039868C20764
:1018F80064D542105B6804EB6000A258D35898473F
:1019080030EE480AF6EE006ADFED417AB7EE007A6B
:10191800404DA8EE808A404828EE268AB4EEE78A31
:10192800F1EE10FA37FE270A03F020FD2878BFF3FE
:101938005B8F10F001044BD0384E394BD3ED008A41
:10194800FDEEE87A17EE900A02283FD0F7EE007A0B
:1019580078EEA77AFDEEE77A17EE904A07EE900A3E
:10196800304BF7EE006A06EB0010B8EEE77AD3EDDD
:10197800007A836878EEC78AB0EEE77A67EE887AED
:1019880076EEE86A27EE088A67EEA88A28EE268AA5
:101998008DED018A002B36D0C36801A99847CDED9B
:1019A800008A06EB041083686BB3C36869469847DE
:1019B80002B0BDEC028B70BD03257FE75B6804EBCA
:1019C80060009CE75B6804EB600089E70024C5E7DA
:1019D8002846124E12F052FB0028AED0124A20467A
:1019E800124B1349C6E90232124A134BC6E90632B2
:1019F800124B134AC6E90A32124A12F0C5FA2846AF
:101A080012F048FB99E712F0F7FB00BF1000002422
:101A1800000000002803002470BD0224A40B002449
:101A28004800002444000024650A0008090B000847
:101A3800410A0008810A0008F10A0008D90A0008CA
:101A48009D0A0008000000242DE9F04FD248DFF875
:101A58009483D24E2DED068B83B003F03FFCB7EE96
:101A6800C00AD8F80030D8F804009FEDC97BB4EE5E
:101A7800C70BF1EE10FACCBF0121002183420AD036
:101A88003478A1424FF0000203F19C0318BF03F819
:101A98002C2C9842F5D1C248317003F01FFCB7EEE8
:101AA800C00AC0499FEDBA7B91F82B20B4EEC70B52
:101AB800F1EE10FACCBF012300239A4206D000228F
:101AC80081F82B3001230A8581F82A303378D8F839
:101AD8000040002B00F04C8294ED250A204603F0CC
:101AE800ABFCB14A3378D8F8004082ED000A002BED
:101AF80000F03F8594ED4C0A04F19C0003F09CFC37
:101B0800AA4811F0F3FF3378D8F80040002B00F012
:101B18000B8594ED730A04F59C7003F08DFCA44AC0
:101B28003378D8F8004082ED000A002B00F0D0840A
:101B380094EDC10A04F51C7003F07EFC9D4FA7F6D6
:101B48006C03DFED9D7AB3EE0E7AB4EEE70AF1EEA0
:101B580010FA05D4B4EEC70AF1EE10FA77FE007A4F
:101B6800C3ED047A03F59A73BB42EAD13378D8F807
:101B78000040002B00F0868494ED9A0A04F5EA7080
:101B880003F05AFC8D4B83ED050A03F59A73BB42AB
:101B9800F9D13378D8F80040002B00F04D8494ED4B
:101BA800E80A04F5437003F047FC854D05F66C0B15
:101BB8002B4603ED180A03F59A739B45F9D1337840
:101BC800D8F80040002B00F00F8404F23C4304F5E1
:101BD8006A7093ED000A03F02FFCDFED7A7A7A4CF5
:101BE80080EE278A04F66C09A24650460AF59A7ACE
:101BF8000121B0EE480A11F0ADFDD145F5D132789A
:101C0800D8F800A0002A00F0C7830AF59B620AF200
:101C1800444092ED000A03F00FFCDFED6A7AA24619
:101C280080EE278A50460AF59A7A0221B0EE480AD1
:101C380011F090FDCA45F5D13278D8F80030002A65
:101C480000F0808303F2745203F59C6092ED000A61
:101C580003F0F2FBB5EEC00ADFED5C7AB7EE007A6E
:101C6800F1EE10FA05D9B4EEC70AF1EE10FA77FED4
:101C7800007A45ED247A05F59A75AB45EAD13378B3
:101C8800D8F80050002B00F0368305F5C26305F242
:101C98007C5093ED000A03F0CFFBDFED4A7A80EE2B
:101CA800278A204604F59A740421B0EE480A11F0F8
:101CB80051FD4C45F5D13378D8F80040002B40F061
:101CC800F78294ED260A04F1380003F0B5FB404B87
:101CD800D8F8004083ED000A3378002B40F0C38227
:101CE80094ED4D0A04F1D40003F0A6FB394BD8F863
:101CF800004083ED000A3378002B40F08F8294ED8A
:101D0800740A04F5B87003F097FB334BD8F8004019
:101D180083ED000A3378002B40F05B8294ED9B0A38
:101D280004F5037003F088FB2C4BD3ED007A234BAA
:101D380070EE277AC3ED067A03F59A73BB42F9D1A0
:101D48003378D8F80040002B40F01E8294EDC20A88
:101D580004F52A7003F070FBFDEEC07A1149D8F83B
:101D680000404A6917EE903A9342A8BF134632786A
:101D78000B62002A40F0BB8194EDE90A04F551702A
:101D880003F05AFB164A33782EE000BFAFF3008009
:101D98009A9999999999B93FA04E0324240300244C
:101DA800C04E032444BD022450000024F8BC022481
:101DB8004C000024A00B0024CDCCCC3D34030024DF
:101DC8006804002400007A44D80300240AD723BCFE
:101DD8000C000024F4BC0224040000249C4E0324BC
:101DE80008000024884E0324D8F8004082ED000A39
:101DF800002B40F0558104F23C4304F5787093EDD4
:101E0800010A03F019FBDA4D3378D8F8004085ED64
:101E1800000A002B40F01D8104F59B6304F27C400E
:101E280093ED010A03F008FB3378D8F8004085EDFC
:101E3800010A002B40F0E68004F2745304F5A36015
:101E480093ED010A03F0F8FACA4A3378D8F800404B
:101E580082ED000A002B40F0AE8004F5C26304F264
:101E6800B45093ED010A03F0E7FAC34BC34A03F6F3
:101E78006C0082ED000AF7EE006A13ED1E7A13ED8E
:101E88001C6AA3F1140253ED1B7A002186EE87AA7F
:101E980053ED1FAA36EE276A83ED05AA83ED06AA3D
:101EA800DFEDB77AB0EE007AB4EEE76AF1EE10FA39
:101EB80005D4B4EEC76AF1EE10FA77FE067AF7EEAB
:101EC800006A07EE101A9FEDAF9AB3EE0C8BF8EE8E
:101ED800C79A0131B0EE667A9FED975BA7EEA97AB3
:101EE8009FED971B9FED980B9FED992B9FED9A3BCC
:101EF8002AEE877A9FED9A4BB4EEC97AF1EE10FA82
:101F08002DDCB7EEC77A13ED1A9AB7EEC99A27EE09
:101F1800057B87EE095B25EE057BA7EE081B37EEF0
:101F2800400BA7EE002BA7EE013BB0EE441BA7EE3B
:101F3800021BA7EE034B25EE015B85EE047BB7EE93
:101F4800C77BF0EE667AA2EC017A9342EAEE077A52
:101F5800E7EE077A86EEA77A82ED047AA0D103F538
:101F68009A73984287D103B0BDEC068BBDE8F08F19
:101F780004F1740003F0B2F9307804EB8003D3ED78
:101F8800256A36EEC07A9FED785BB0EEC77AB7EE79
:101F9800C77AB4EEC57BF1EE10FA40F1298401222C
:101FA80084F87020C0EBC00083ED250A04EBC00064
:101FB80003F042FA95E504F5BE6004F27C5503F09F
:101FC8008DF9307804EB800303F5C263D3ED006A22
:101FD80036EEC07A9FED645BB0EEC77AB7EEC77A8B
:101FE800B4EEC57BF1EE10FA40F1F383012284F8D8
:101FF800EC25C0EBC00083ED000A05EBC00003F040
:102008001BFA32E704F2545004F59C6503F066F9B4
:10201800307804EB800303F27453D3ED006A36EE94
:10202800C07A9FED515BB0EEC77AB7EEC77AB4EECF
:10203800C57BF1EE10FA40F1BD83012284F85025EA
:10204800C0EBC00083ED000A05EBC00003F0F4F913
:10205800FAE604F5976004F2444703F03FF9307854
:1020680004EB800303F59B63D3ED006A36EEC07A78
:102078009FED3D5BB0EEC77AB7EEC77AB4EEC57B8D
:10208800F1EE10FA40F18783012284F8B424C0EB02
:10209800C00083ED000A07EBC00003F0CDF9C3E6EA
:1020A80004F21C4004F56A7503F018F9307804EB63
:1020B800800303F23C43D3ED006A36EEC07A9FED0D
:1020C8002A5BB0EEC77AB7EEC77AB4EEC57BF1EEFD
:1020D80010FA40F15183012284F81824C0EBC000A3
:1020E80083ED000A05EBC00003F0A6F98BE604F5C2
:1020F800607004F5437503F0F1F8307804EB800361
:10210800D3EDE86A36EEC07A9FED175BB0EEC77A7A
:10211800B7EEC77AB4EEC57BF1EE10FA40F11D8335
:10212800012284F87C23C0EBC00083EDE80A05EBAC
:10213800C00003F081F925E6182D4454FB2109401D
:1021480000000000009CA8C00000000000A077402C
:102158000000000040EBD040000000004074EE405A
:1021680000000000F87E00C19A9999999999B93FA1
:102178001000002444000024BC030024480000246C
:10218800CDCCCC3D00409C4604F5397004F51C7557
:1021980003F0A4F8307804EB8003D3EDC16A36EE7F
:1021A800C07A9FEDDF5BB0EEC77AB7EEC77AB4EEC0
:1021B800C57BF1EE10FA40F1C182012284F8E022D9
:1021C800C0EBC00083EDC10A05EBC00003F034F991
:1021D800C2E504F5127003F081F8337804F5EA706B
:1021E80004EB8302D2ED9A6A36EEC07A9FEDCC5B9F
:1021F800B0EEC77AB7EEC77AB4EEC57BF1EE10FA47
:1022080040F18D82012184F84412C3EBC30382EDAF
:102218009A0A00EBC30003F00FF985E504F5D670C0
:1022280003F05CF8337804F59C7004EB8302D2ED7C
:10223800736A36EEC07A9FEDBA5BB0EEC77AB7EE36
:10224800C77AB4EEC57BF1EE10FA40F1598201214C
:1022580084F8A811C3EBC30382ED730A00EBC30033
:1022680003F0EAF851E504F5887003F037F833789D
:1022780004F19C0004EB8302D2ED4C6A36EEC07A7E
:102288009FEDA75BB0EEC77AB7EEC77AB4EEC57B11
:10229800F1EE10FA40F12582012184F80C11C3EB0C
:1022A800C30382ED4C0A00EBC30003F0C5F81DE53B
:1022B80004F1740003F012F8307804EB8003D3EDD6
:1022C800256A36EEC07A9FED965BB0EEC77AB7EE18
:1022D800C77AB4EEC57BF1EE10FA40F1F381012222
:1022E80084F87020C0EBC00083ED250A04EBC00021
:1022F80003F0A2F8EBE405F5BE6002F0EFFF3378D7
:1023080005F27C5005EB830202F5C262D2ED006A49
:1023180036EEC07A9FED825BB0EEC77AB7EEC77A29
:10232800B4EEC57BF1EE10FA40F1BD81012185F8CC
:10233800EC15C3EBC30382ED000A00EBC30003F006
:102348007BF8AAE403F25450019302F0C7FF019B03
:10235800327803F59C6003EB820101F27451D1EDF0
:10236800006A36EEC07A9FED6E5BB0EEC77AB7EEC4
:10237800C77AB4EEC57BF1EE10FA40F185814FF0D3
:10238800010C83F850C5C2EBC20281ED000A00EBD4
:10239800C20003F051F85DE40AF5976002F09EFF71
:1023A80032780AF244400AEB820101F59B61D1EDD3
:1023B800006A36EEC07A9FED5A5BB0EEC77AB7EE88
:1023C800C77AB4EEC57BF1EE10FA40F14E814FF0BA
:1023D800010C8AF8B4C4C2EBC20281ED000A00EB1A
:1023E800C20003F029F818E404F21C4002F076FF5A
:1023F800337804F56A7004EB830202F23C42D2EDB2
:10240800006A36EEC07A9FED465BB0EEC77AB7EE4B
:10241800C77AB4EEC57BF1EE10FA40F117810121BD
:1024280084F81814C3EBC30382ED000A00EBC30061
:1024380003F002F8FFF7D1BB04F5607002F04EFF1D
:10244800337804F5437004EB8302D2EDE86A36EE84
:10245800C07A9FED335BB0EEC77AB7EEC77AB4EEB9
:10246800C57BF1EE10FA40F1E280012184F87C137B
:10247800C3EBC30382EDE80A00EBC30002F0DCFF04
:10248800FFF793BB04F5127002F028FF337804F5C8
:10249800EA7004EB8302D2ED9A6A36EEC07A9FEDB9
:1024A800205BB0EEC77AB7EEC77AB4EEC57BF1EE23
:1024B80010FA40F1AD80012184F84412C3EBC30344
:1024C80082ED9A0A00EBC30002F0B6FFFFF75ABB91
:1024D80004F5397004F51C7502F000FF307804EB40
:1024E8008003D3EDC16A36EEC07A9FED0D5BB0EE86
:1024F800C77AB7EEC77AB4EEC57BF1EE10FA79D594
:10250800012284F8E022C0EBC00083EDC10A05EB8C
:10251800C00002F091FFFFF711BB00BFAFF30080CE
:102528009A9999999999B93F04F5D67004F59C75CB
:1025380002F0D4FE307804EB8003D3ED736A36EEF4
:10254800C07A1FED095BB0EEC77AB7EEC77AB4EE72
:10255800C57BF1EE10FA3FD5012284F8A821C0EB23
:10256800C00083ED730A05EBC00002F065FFFFF7BA
:10257800D6BA04F5887004F19C0502F0AFFE3078F5
:1025880004EB8003D3ED4C6A36EEC07A1FED1C5B7A
:10259800B0EEC77AB7EEC77AB4EEC57BF1EE10FAA3
:1025A8000CD5012284F80C21C0EBC00083ED4C0A45
:1025B80005EBC00002F040FFFFF7A2BA94F80C2127
:1025C800002AF1D1C0EBC000B0EE660A05EBC000EE
:1025D80002F032FFFFF794BA94F8A821002ABED17E
:1025E800C0EBC000B0EE660A05EBC00002F024FFA5
:1025F800FFF795BA94F8E022002A84D1C0EBC00016
:10260800B0EE660A05EBC00002F016FFFFF796BAB7
:1026180094F8441200297FF451AFC3EBC303B0EE22
:10262800660A00EBC30002F007FFFFF7ABBA94F8A5
:102638007C1300297FF41CAFC3EBC303B0EE660A1A
:1026480000EBC30002F0F8FEFFF7AFBA94F81814D5
:1026580000297FF4E7AEC3EBC303B0EE660A00EBD4
:10266800C30002F0E9FEFFF7B8BA9AF8B434002BB9
:102678007FF4B1AEC2EBC202B0EE660A00EBC20054
:1026880002F0DAFEFFF7C9BA93F85035002B7FF451
:102698007AAEC2EBC202B0EE660A00EBC20002F0EC
:1026A800CBFEFFF7D7BA95F8EC1500297FF441AEB9
:1026B800C3EBC303B0EE660A00EBC30002F0BCFE36
:1026C800FFF7EBBA94F87020002A7FF40BAEC0EB4A
:1026D800C000B0EE660A04EBC00002F0ADFEFFF7E2
:1026E800F6BA94F80C1100297FF4D9ADC3EBC303F3
:1026F800B0EE660A00EBC30002F09EFEFFF7F6BAE2
:1027080094F8A81100297FF4A5ADC3EBC303B0EE7C
:10271800660A00EBC30002F08FFEFFF7F6BA94F8E2
:10272800441200297FF471ADC3EBC303B0EE660A0F
:1027380000EBC30002F080FEFFF7F6BA94F8E0223F
:10274800002A7FF43DADC0EBC000B0EE660A05EB91
:10275800C00002F071FEFFF7FFBA94F87C23002A4C
:102768007FF4E1ACC0EBC000B0EE660A05EBC00038
:1027780002F062FEFFF706BB94F81824002A7FF4E3
:10278800ADACC0EBC000B0EE660A05EBC00002F0CD
:1027980053FEFFF738BB94F8B424002A7FF477ACD3
:1027A800C0EBC000B0EE660A07EBC00002F044FEC2
:1027B800FFF73ABB94F85025002A7FF441ACC0EBF0
:1027C800C000B0EE660A05EBC00002F035FEFFF768
:1027D8003BBB94F8EC25002A7FF40BACC0EBC0009F
:1027E800B0EE660A05EBC00002F026FEFFF73DBB1F
:1027F80094F87020002A7FF4D5ABC0EBC000B0EE8F
:10280800660A04EBC00002F017FEFFF76AB900BFC2
:102818002DE9F04F2DED048B85B01446CDE901016B
:102828000392FFF711F9DB4802F0B2FD002C00F02B
:10283800AB810027D84ED94DDFF8C893D84BF7EEB7
:10284800007A93ED006AD74B77EEC67A93ED007A5B
:10285800D54B1A68D54BA3FB02130199096801EB04
:10286800870191ED008AD11A03EB5103D04928EE74
:10287800078A1B0C01FB132244F2A71128EE278AB2
:1028880001FB02F240F6143101FB03F3B9009A424E
:102898000091C0F07682D31AC34AB7EE007ADFED12
:1028A800DF5A1360013BDFEDC36A07EE903AC24B73
:1028B800F8EE677A77EEA57A67EEA67AD3ED016A25
:1028C800F4EEC77A93ED007A96F82B3076EEC76A65
:1028D800F1EE10FAA8BFDFEDB97AA6EEA77AA6EE58
:1028E800078A002B00F0528296F82A30A3B1B5EE81
:1028F800C08AF1EE10FA00F18382B5EEC08AF1EEDB
:1029080010FA07DBD6ED097AF5EEC07AF1EE10FA87
:1029180000F17E8286ED098A96F82930002B40F076
:102928003D8296F82830002B40F04C829FEDBB8A00
:102938009FEDBA9A4FF0000AA14C94F83021002A72
:1029480040F06E8123460132DFEDB47A0833052A60
:10295800C3ED077AC3ED087AC3ED117AC3ED127A95
:10296800F1D10AF59A7A40F66C0339EE279A04F504
:102978009A749A45E1D1FEF773FF924B9FED926AE4
:10298800B7EE007AD3ED007A904BD3ED005A904B16
:1029980077EEA57AD3ED006A77EEE67AE7EE866AF7
:1029A800F4EEC76AC3ED006AF1EE10FA00F1E281B5
:1029B800DFED887AF4EEE76AF1EE10FA00F3E981C8
:1029C800FDEEE67AB8EEE77A17EE900A76EEC76A79
:1029D800D5F804A04AF644447F4B4AF64542504491
:1029E8004AF6434193ED000AF6EE001A7B4B00EBE2
:1029F800040E024400EB010C93ED002A5144784B7D
:102A080005EB8A0A9FED773AF3EE0C0AA3FB0E8BCF
:102A1800DFED752ADFED753AB5EE400A4FEADB3B8C
:102A28009FED734A9FED735A04FB1BEEF1EE10FA0B
:102A380005EB8E0EDEED037AA3FB028E4FEADE3E37
:102A480004FB1E2205EB8202D2ED035AA3FB0CE223
:102A58004FEAD23237EEE56A04FB12C205EB820276
:102A680092ED037A4AF646420244A3FB01C075EE92
:102A7800C75AA3FB02C3B0EE467A4FEAD0304FEAFA
:102A8800D333A5EEA17A04FB101104FB132369606C
:102A980005EB830393ED031A36EE076A31EE671AE6
:102AA800A1EE216A37EE067A96EE267AB0EE636AD0
:102AB80027EE267AA5EEA17AF0EE435AE7EE267ABB
:102AC80079EE277A20EE277A62EE277ACAED037A22
:102AD80067EE077AE7EEA05A77EEA26AA7EEA66A33
:102AE800F0EE446AE7EEA56AF0EE455AE7EE865A3C
:102AF800A7EEA65A27EE257AC7EE058A00F190813F
:102B0800F1EEC06A3C4B99ED000AD3ED007A3B4BDD
:102B1800B7EE005A9FED2C6AD3ED005AB3EE047A53
:102B280077EEA57A85EE268A77EEC07AA7EE860A32
:102B3800B4EEC70A89ED000A28EE288AF1EE10FAE9
:102B480000F11C81DFED237AB4EE670AF1EE10FA8A
:102B580037FE800A2A48013710F064FFB0EE480AB1
:102B6800274810F0FBFE264BB7EE087A009AD3ED03
:102B78000C7A029B67EE877A1B681344C3ED007AD0
:102B8800039BBB427FF45AAE05B0BDEC048BBDE895
:102B9800F08F00BF70BD022444BD0224D40B002472
:102BA800500000240C000024A00B0024BD169C0635
:102BB8001DF30100000000302C030024FFFF7F3FBD
:102BC80034030024040000246F12033AF0BC0224EA
:102BD800984E032400409C4608000024F4BC0224BC
:102BE8003BC637BE00E044450000BD43005A874657
:102BF80000A27347C0F703484C0000248CBD022490
:102C0800F8BC0224944E03249A993940CDCCCC3D8B
:102C18000000FE420AD7A33D6866663F0000000038
:102C280094F8311104F1A40010F01CFE94F8D0308F
:102C3800F0EE409A0BB984F8303194ED054AB5EEC0
:102C4800C04AF1EE10FA00F189805FED117AB4EE16
:102C5800E74AF1EE10FA00F38780FDEEC47A17EE2A
:102C6800903AF8EEE77A03EB430334EE674A9B00A9
:102C780003F10C0C22465FED178A2046A34652F852
:102C8800741BCB5851F80CC003F1140EF3EC016A15
:102C9800FCEC015A75EEE65AE5EE846AF5EE406AF8
:102CA800B0EE666AF1EE10FA29D19E4500F10800EF
:102CB80002F10402EAD10BF1D8005C4610F076FF6D
:102CC800DBED357A0BF5807020EE270A5FED317A5F
:102CD800E0EE278A10F06AFF9BED4B7A5FED347ABD
:102CE800DBED356A20EE260AC7EE276A5FED377AF4
:102CF800E0EE278A26EEA87A67EE297A31E6D2ED49
:102D0800004AF0EE486A9BED277A0146D2ED052A83
:102D1800002434EE877A9BED283AD1ED095A283100
:102D280091ED005AE5EEC76A76EEC56A66EEA26ACC
:102D3800E4EEA65AA4EEA55AF0EE653AE4EEA63AF9
:102D480065EE836AA4EEA55A41ED013A81ED005A79
:102D580014B1E6EE268AA8E70124DEE71FED514A02
:102D68004FF00C0C002385E71FED554A4FF0240C5B
:102D780018237FE75FED576A012029E6B0EE470A7E
:102D8800E8E66FF000411144CB1A85E586ED098A23
:102D9800CEE55FED5E6A44F6206019E6B369591C1A
:102DA8009B003268306A1344B161884283ED008A1F
:102DB8001DDC012386F8283073698B4204DC00236C
:102DC80086F82930306A3268F368002B16DB3169DF
:102DD8000B4433611B14F361984204DD02EB830258
:102DE80092ED008AA4E500233361F361F8E7736983
:102DF8008B42DCBF002386F8293092E5F369EBE7C4
:102E0800D6ED097AF5EEC07AF1EE10FAFFF675AD57
:102E180000230121F36186F82A3086F82910C0E7DB
:102E280011F08CFDF0EE406A6CE600BF84B010B57E
:102E38002DED048B06AC84E80F009DF818309DF842
:102E4800202053B3012B22D19DF8213006EE903A71
:102E5800F8EEE67AF5EE407AF1EE10FA3BD107EE9D
:102E6800902A5D4BF8EE677A03F66C0193F83021EF
:102E78004AB193ED4A7A0022F4EE477AF1EE10FA5D
:102E880008BF83F8312103F59A738B42EED1BDEC6C
:102E9800048BBDE8104004B0704707EE902A4E4BF3
:102EA800F8EE677A03F66C0193F830214AB193ED96
:102EB8004A7A0022F4EE477AF1EE10FA08BF83F856
:102EC800312103F59A739942EED1BDEC048BBDE82C
:102ED800104004B0704707EE902A3F490022F8EEF0
:102EE800677A0C460B4693ED4A7A03F59A73F4EE2B
:102EF800477AF1EE10FA17D00132072AF3D1364B90
:102F0800002293F8300103F59A7368B10132072A59
:102F1800F7D1324A91F8D0300C4601F59A71042B5A
:102F280006D09142F6D1B2E74FF49A7303FB0244FC
:102F3800B2EE088AC4ED4A7A9FED299AF8EE666ADD
:102F4800DFED288AB0EE000A77EEC87AC4ED4B6A46
:102F580077EEC90AC0EE880A11F032FA04F1D800F7
:102F680020EE280A84ED380A11F002F8F3EE087A08
:102F7800D4ED4A0AB0EE407AB0EE000A70EEE70AE5
:102F880084ED3C7A70EEC90AC0EE880A11F018FA8E
:102F980004F5807020EE280A84ED420A10F0E8FF5C
:102FA800D4ED4A0AF0EE407A70EEC90AB0EE000A93
:102FB800C4ED467AC0EE880A11F002FA40F2011315
:102FC800A4F8303120EE280ABDEC048B84ED030A06
:102FD800BDE8104004B0704734030024A00B00245F
:102FE80000008A420000DC432DE9F04FCD480F2451
:102FF8002DED048BADF5477D00F06AFF0021C9482F
:1030080093AD01F009F84FF48071C64800F080FFD5
:10301800C44800F079FFB0EE408A042000F05AFF5F
:10302800ADF88C00B0EE480A00222399BE4802F0A1
:1030380079F92046013400F04DFF0346E4B22846F2
:10304800ADF890301135249902F040FA192CF0D1DE
:103058002046B64C00F03EFF03460DF2F620B44D74
:10306800ADF89430002725994FF0010802F02EFAA8
:103078001C2000F02FFF03460DF20730AD4EADF8CF
:103088009830269906F66C0B02F020FA04230C22DD
:1030980093A9A94802F028FA0A21A74802F01EFCC1
:1030A8009FEDA60A0023014628EE000ADFEDA40AD8
:1030B8001A4620468DED210A02F0F2F80B219E48AF
:1030C80002F00CFC0023DFED9E0A01461A469DED36
:1030D800210A04F1200002F0E3F89A4B636063626E
:1030E80005F51044FDF7A8FD934802F0E1FB964B67
:1030F8006FA904F1B00070977297CDF8C481CDF82C
:10310800D081C4E92A7303F57F0303F57F436F93E6
:103118000223739347F61223759304F095FC0A2350
:10312800B0EE480A8948C4F89C70C4F898702B72AD
:103138002F7110F0EFFB9FED860A844810F072FCA7
:103148009FED840A814810F0D1FC9FED830A7F48E7
:1031580010F012FD814A3946814811F06DFD814B0E
:10316800C3E901784FF000084FF07C593046B0EEC3
:10317800480A86F88C80012110F07CFA3046B5EEBA
:10318800000A0121C6F800904FF0000A10F0E2FA98
:1031980030469FED750A022110F0DCFA0421304612
:1031A8009FED720A10F0D6FAF7EE007ADFED708A1A
:1031B80006F1340086ED108A012787EE889AC6ED5D
:1031C8000F8AC6F83890C6F848A0B0EE680A86EDAF
:1031D800119A10F0CDFEF0EE407A86F8597006F19B
:1031E8005C0086F85870B0EE680AC6ED137A86ED72
:1031F8001A8A86ED1B9AC6ED198AC6F86090C6F839
:1032080070A086F8348010F0B3FE5A4B86F85C80C4
:1032180086ED1D0A86F8817086F8807006ED218A91
:1032280046F8943C06F59A765E459BD1524927AFFD
:103238003C48DFF84C8100F063FE504804F086FCFF
:1032480004F0A2FD06464D4804F0B4FCF0B14B482A
:10325800C4F8A06004F09AFC2B79032BF3D8DFE8BC
:1032680003F091BB2902F72800F0388195F99220E4
:1032780095F89230002AE6DBEA18013390743F484B
:1032880085F8923004F096FC0028E0D13B4804F021
:1032980071FC0346002800F01981D4F89C30D4F85A
:1032A80098209B1ADBB2002B40F0E480012004F048
:1032B8006DFDC5E794F8B43003402FD194F8B6906B
:1032C80094F8A42000EA0900012A687402D10028B1
:1032D80000F02E8190222A494BA811F085FCD4F8E1
:1032E8009830D4F89C20013B9B1ADBB2002BF6D017
:1032F80090224BA96FA811F077FCD4F89C909022EB
:103308006FA909EBC90009F1010905EB0010983014
:1033180011F06AFC5FFA89F3C4F89C3000232B7122
:1033280091E700BF4C4E032470BD0224A04E032435
:1033380090BD0224D8030024644E03240000803B7F
:103348006F12033BCDCCCC3D01070106F8BC02242B
:103358000080BB459A99193FCDCC4C3F10B1020073
:10336800E00B0024D40B00240AD7A33BCDCC4C3E61
:103378000000C8420000C04019280008404E03243D
:1033880098BD022494F8B430184200F0948094F860
:10339800B53094F8B820034002401B09EA60092BB5
:1033A8002B723FF650AF0122072B84F8A4302A7104
:1033B8007FF449AF002310F00802EB6040F0E4808E
:1033C80000F0070385F89330002B40F0B580032206
:1033D80085F892302A7136E794F8B43018429DD1B6
:1033E80094F8A4A094F8B690AAF1040300EA090995
:1033F800012B85F8109006D995F8933003F0FD035A
:10340800012B40F09280002390226D494BA82B712C
:1034180011F0EAFBD4F89830D4F89C20013B9B1AB1
:10342800DBB2002BF6D090224BA96FA811F0DCFB81
:10343800D4F89CB090226FA90BEBCB000BF1010BD9
:1034480005EB0010983011F0CFFB5FFA8BF3C4F84E
:103458009C30B9F1770F7FF6F6AEBAF1030F7FF41F
:10346800F2AE0923A9F178092B7284F8A43085F803
:103478009590E8E6D4F89C30D4F898209B1ADBB2F3
:10348800002BF7D0D4F898609022384606EBC60196
:10349800013605EB0111F6B2983111F0A5FB2BA905
:1034A80080226846C4F8986011F09EFB97E80F00E8
:1034B800FFF7BCFCF1E694F8B690022394F8A42038
:1034C80000EA09002B712A722874BCE63D482B716A
:1034D80004F054FB3B4804F039FBDEE6002390225D
:1034E80037494BA82B7111F07FFBD4F89830D4F8EA
:1034F8009C20013B9B1ADBB2002BF6D090224BA9F3
:103508006FA811F071FBD4F89C9090226FA909EB79
:10351800C90009F1010905EB0010983011F064FBAE
:103528005FFA89F3C4F89C308DE602232B7190E78B
:1035380084F8A4302B72CDE643077FF584AE2A7158
:10354800414690224BA811F04FFBD4F89830D4F89C
:103558009C20013B9B1ADBB2002BF6D090224BA992
:103568006FA811F041FBD4F89C9090226FA909EB49
:10357800C90005EB0010983011F036FB09F1010382
:10358800DBB2C4F89C305EE694F8BA104FF0080C31
:1035980090222B710840414685F808C085F89400B0
:1035A8004BA884F8A4C011F01FFBD4F89830D4F8C5
:1035B8009C20013B9B1ADBB2002BF6D0CEE700BF64
:1035C80098BD0224404E03242DE9F04F8BB00092A1
:1035D800002A00F0E38099460C461146C14A80460D
:1035E8002546D0E901639B1B9B1002FB03F38B422A
:1035F80080F0D78005680099761BB61002FB06F6A6
:10360800B94A931B994200F2DF81009B651BB342C4
:1036180038BF3346F618039680F02881039B002BA9
:1036280040F0C7810293029B0C35DDF800A01D44D1
:10363800D9E900B3CDE90484A3EB0B075C469B46AC
:1036480022E0AA4A0197974200F2BC81384610F05E
:1036580024FD019B0646D9E9004BABEB0407B846AD
:1036680033445C4545F8043C45E9036604D04246CA
:103678002146304611F0C6FA4644BAF1010A05F16E
:103688000C0545F8146C0AD0002345E9033345F8C6
:10369800043C3B46002FD4D1B8463E46E0E7DDE97E
:1036A8000484D8F80050A54200F0818105F10C038C
:1036B800029A53F80C6C00209C4202F10C0242F86A
:1036C8000C6C53F8086C42F8086C53F8046C42F818
:1036D800046C43F80C0C43E9020003F10C03E8D135
:1036E800A4F10C07824B7F1BBF0803FB07F7029B63
:1036F80027F04047013707EB470703EB8707009B95
:10370800D8F8046003EB4302A64207EB820727D0F0
:1037180004F10C03394653F80C0C9E4201F10C01DC
:1037280041F80C0C53F8080C41F8080C53F8040C39
:1037380041F8040C4FF0000043E9020043F80C0C78
:1037480003F10C03E7D1331B694A0C3B9B0802FBCE
:1037580003F323F04043013303EB430307EB8307F1
:10376800B5420AD0286818B1A968091A10F084FC73
:103778000C35AE42F6D1D8F800602EB1D8F8081052
:103788003046891B10F078FC039B03EB4300029B37
:1037980003EB8000C8E90037C8F808000BB0BDE8A3
:1037A800F08F06900023D9E90010CDE90733B0EB7C
:1037B800010A099357D04D4B9A4500F203815046B0
:1037C80010F06BFC0346D8F80460D9E90010471ADA
:1037D80003EB0A0288420992CDE9073304D0184660
:1037E8003A4611F00FFA0346311BDA1908460191DF
:1037F8003C498710089201FB07F70099B9427BD32F
:103808000099CF1B38D006F10C0B21E0374B9945B6
:1038180000F2D880484610F040FC034603EB09024A
:103828004BE903334BF8042CDDE907129142A2EB74
:10383800010904D018464A4611F0E4F903464B44FE
:10384800013F0BF10C0B4BF8143C16D0DDE90732A5
:103858000021B2EB0309DA464BF8041C4BE90311CB
:10386800D4D14B46DAE757465346B1E7214803928D
:1038780010F013FC0290D6E6B246B442C8F804A091
:1038880025D00C34534654F80C1CB44203F10C03F5
:1038980043F80C1C54F8081C43F8081C4FF00001AE
:1038A80054F8040C43F8040C44F80C1C44E90211C5
:1038B80004F10C04E7D1019B07AC5344C8F8043069
:1038C80028460C352146FDF727F9B542F8D1079867
:1038D80000283FF463AF0999091A10F0CDFB0BB02B
:1038E800BDE8F08FABAAAAAAAAAAAA0AFCFFFF7F82
:1038F800ABAAAA2AF8FFFF7F01EB4109A6EB8907CB
:103908004FEA8909B7421AD007F10C03314653F838
:103918000C2CB34201F10C0141F80C2C53F8082C83
:1039280041F8082C4FF0000253F8040C41F8040C3D
:1039380043F80C2C43E9022203F10C03E7D13B1BAB
:1039480006EB0902002BC8F804204FEAA308204A16
:1039580002FB08F81FDD57F80C3C56F80C0C46F82B
:103968000C3C57F8083C56F8041C46F8083C002361
:1039780057F8042C46F8042C47F8043C47E903336D
:1039880010B1091A10F078FBB8F10108A6F10C067D
:10399800A7F10C07DFD1A144A14598D007AC284670
:1039A8000C352146FDF7B8F8A945F8D18FE7029FF5
:1039B800A5E6039B934228BF134603EB43000393FA
:1039C800800055E710F012FC024810F012FC00BF0E
:1039D800ABAAAAAAE85001084FF07E534FF08041E5
:1039E8004FF07C52F0B52DED068B83610025924B8C
:1039F800044601610021036285B0904B4261502268
:103A0800C16129468560C0E90055E360243011F0A2
:103A180013F914200395CDE9015510F03EFB00F190
:103A280014030190056045608560C5600561D4E9AF
:103A38000076CDE90233F31B242B40F2D280302BE1
:103A480000F2BE80142110F017FB23681D689869E6
:103A5800596ADA6800230133F6EE086ADFED784A1E
:103A6800B6EE004A07EE903A03F00106B7EE006A98
:103A7800012BF8EEE75A07EE106A9FED725AB8EE7E
:103A8800C77AC6EEA57A06FE056A052BA5EC016A7B
:103A9800C4EEA56AC4EE254A67EE877A67EEA77A70
:103AA80026EE877AA0EC017AE1EC014AE2EC017A91
:103AB800D1D1654A04F12801234684ED055A2261D3
:103AC800083300229942DA611A625A649A64F7D17B
:103AD80094ED066A04F17403D4ED077A04F18801C1
:103AE8005A48002236EE276A94ED035AC4F89C001F
:103AF800C4F8A000DFED567AB0EE007AB4EEE76ABB
:103B0800F1EE10FA05D4B4EEC76AF1EE10FA77FEBA
:103B1800067AF7EE006A07EE102A9FED4EAAB3EE7A
:103B28000C9BF8EEC7AADFED4C5AB0EE667A01326C
:103B38009FED354BA7EEAA7A9FED350B9FED368B9F
:103B48009FED371B9FED382B25EE077A9FED383B0D
:103B5800B4EECA7AF1EE10FA2DDCB7EEC77A94ED1E
:103B680008AAB7EECAAA27EE047B87EE0A4B24EE12
:103B7800047BA7EE090B37EE488BA7EE081BA7EED0
:103B8800002BB0EE430BA7EE010BA7EE023B24EE91
:103B9800004B84EE037BB7EEC77BF0EE667AA3ECAE
:103BA800017A8B42E7EE257AE7EE077A86EEA77A66
:103BB80083ED047A9ED1204605B0BDEC068BF0BD9E
:103BC8003037BE423FF43EAF3D462B6818461BB126
:103BD800A968C91A10F050FA0C35AE42F5D16760E1
:103BE8000AE09A101D4801AB314600FB02F220465C
:103BF800C2F10402FFF7E8FC019800283FF425AF62
:103C08000399091A1FE700BF182D4454FB210940E6
:103C180000000000009CA8C00000000000A0774041
:103C28000000000040EBD040000000004074EE406F
:103C380000000000F87E00C100442C470000C84284
:103C4800C3F5283F000000009A99C1409641293EDB
:103C5800CDCCCC3D00409C469641293EABAAAAAAB1
:103C680000293DD082682DE9F84FD0E900830C4641
:103C78006FF06041D21AA3EB08090646B4EBA20F15
:103C88004FEAA905A1EBA9001FD9A04247D3AC422E
:103C9800234638BF2B46EF1844D297BBCB46BA46CB
:103CA8000AEB0900A200002110F0C6FFBBF1000FCB
:103CB80017DCB8F1000F20D12C44C6F800A0B7607B
:103CC8000AEB84047460BDE8F88FA400184600214C
:103CD800224610F0B1FF034623447360BDE8F88F15
:103CE800704741465A46504610F08CFFB168A1EB28
:103CF8000801404610F0C0F9DEE7B168A1EB080101
:103D0800F7E78F4228BF0F46BF00384610F0C5F9C5
:103D180082460744D6E90083A3EB080BC0E70248B4
:103D280010F067FA014FF0E700510108FCFFFF7F30
:103D380070B54D4800244D4A4D498460C0E900449F
:103D480010F022F94B48494A4B4904604461046227
:103D580010F01AF949484A4A00F5104349490460E5
:103D6800C3F8B4204FF60F02B1F89051A3F8B82069
:103D78000722B1F89411C3F8A840C3F8B04083F8FB
:103D8800BA20A3F8AC50A3F8AE10384A3E4910F058
:103D9800FBF8364A3D493E4810F0F6F8334A3D49AB
:103DA8003D4810F0F1F83D4D4AF6444100224FF4E9
:103DB80080332846AC6069616A62EB602C6185F8E3
:103DC8002840C5E90044C5E90644FFF749FF6B6987
:103DD800264A2846B3F5007F3149324CA8BF4FF434
:103DE800007304F66C062B6210F0CEF81F4A2E49B9
:103DF8002E4810F0C9F820460025FFF7EDFD0023F6
:103E08002B4A04F59A742B4904F8645C04F8635C43
:103E180044F8903C44F88C3C44F8882C44F8843CA2
:103E280044F8802C44F87C2C44F8782C44F8743CF2
:103E380044F8703C44F86C3C44F8601CA642DAD163
:103E48000A4A1D49174810F09FF81C4A01211C4BCB
:103E58001C4C284611601C491C605960034A1B49C8
:103E6800BDE8704010F090B8884E0324000000248C
:103E7800C50A00084C4E0324B909000890BD022465
:103E880080707FF0144F0108AD0A0008B5090008DA
:103E980070BD0224B1090008F8BC022444BD022404
:103EA8002D0C000834030024B10A0008D40B0024A8
:103EB800000080BFCDCC4C3EE10B0008A00B0024D5
:103EC8002C03002477BE7FBF77BE7F3FA90A000876
:103ED800704700BF1F2882B009D8084B03EB400287
:103EE80013F81030507843EA002002B070470123DD
:103EF8000C2043EA002002B0704700BF7851010847
:103F0800143001F0A3B900BF143001F09BB900BF11
:103F180038B500F1140504462DED028B284601F052
:103F280083F9284601F08EF92846B0EE408A01F060
:103F380077F9D0ED007AF8EE677A88EE277ABDEC4B
:103F4800028B84ED0E7A38BDF0B5032399B00027B3
:103F58000125129306462C4B09A81595CDE90E7339
:103F680040F20453ADF84030284BCDE9135709937C
:103F780001F0B6FD09A801F08FFE002835D1244BC9
:103F880004AF04460090CDF842301023394604951A
:103F98008DF820301F4BCDE91650CDE90650684604
:103FA800059302F007F80823009A01A909A8ADF8BB
:103FB80004508DF8064009940295039300F0E4F844
:103FC80000230EA938463024049302F0BDFD0322D5
:103FD8004FF07E5309A906F114000B93CDE909426D
:103FE800049A01F0EBF819B0F0BD40F60132084B25
:103FF800169704AFADF824200998CDF842301795EC
:1040080000F082F8DCE700BF0402040403030001A7
:10401800040604030704010B2DE9F04304462DEDC3
:10402800028B83B0002948D0012140F201120023FD
:104038000091ADF804208DF80630304A0126304B47
:10404800271D304904F12908626040F20272A3601A
:1040580040F60663E16004F125092682A4F82520CC
:1040680084F82760A4F8293084F82B6003F0F2FF65
:104078006946054648B304F130008DF8066003F040
:1040880051FF072D34D104F114052046FFF75CFFDA
:10409800284601F0D7F82846B0EE408A01F0C0F86B
:1040A800D0ED007AF8EE677A88EE277A84ED0E7AFA
:1040B80003B0BDEC028BBDE8F08340F20113009120
:1040C8008DF80610ADF80430B7E704F1300003F0BE
:1040D80029FF3946204602F0B7F9484601F000FDAD
:1040E800404601F0FDFC04F1120000F077F9CAE740
:1040F8003946204602F0A8F9C5E700BF05080509BA
:1041080005070506050A060610B584B0034601240E
:10411800ADF8040003A8ADF80C30ADF80E4001F07E
:10412800DFFC214603A801F0C5FD204603F02EFE62
:10413800002103A801F0BEFD204603F027FE21461A
:1041480003A801F0B7FD04B010BD00BF10B5C2F35D
:10415800002384B00C46017C8DF80D2043EA44020C
:10416800FA2402238DF80C2003AA009401F0B8FF6A
:1041780018B10124204604B010BD04460A2003F0FB
:1041880005FE204604B010BD034670B543F8042B65
:10419800044684B007C983E80700A37983B91A21C4
:1041A8000B461E22FA2523742046ADF80C20022364
:1041B80003AA009501F094FF28B1012004B070BD56
:1041C8001B210B46EDE70A2003F0E0FD4FF4B8523F
:1041D80000950223ADF80C20204603AA217C01F0AB
:1041E8007FFF0028E9D10A2003F0D0FD41F20272D6
:1041F80000950223ADF80C20204603AA217C01F08B
:104208006FFF0028D9D10A2003F0C0FD04220095D1
:104218000223ADF80C20204603AA217C01F060FFA0
:104228000028CAD10A2003F0B1FD06220095022316
:10423800ADF80C20204603AA217C01F051FF00288C
:10424800BBD10A2003F0A2FD41F208220095022307
:10425800ADF80C20204603AA217C01F041FF00287C
:10426800ABD10A20064603F091FD0095022303AA6C
:10427800217C2046ADF80C6001F032FF00289CD16B
:10428800304603F083FD009522790C232046002A4E
:104298008DF80C3003AA4FF0020314BF62214221AB
:1042A8008DF80D10217C01F01BFF002885D13046C8
:1042B80003F06CFD2279D4E902310B43DBB20AB971
:1042C80043F0400362790AB143F020030E22FA2535
:1042D8008DF80D302046009502238DF80C2003AA96
:1042E800217C01F0FDFE00287FF467AF0A2003F06F
:1042F8004DFD102200950223ADF80C20204603AA9C
:10430800217C01F0EDFE00287FF457AF0A2003F06E
:104318003DFD122100950223ADF80C1003AA217C63
:10432800204601F0DDFE00287FF447AF0A2003F0A5
:104338002DFD012209212046FFF708FF003818BF8C
:1043480001203BE7F0B5102387B0234C012200255C
:104358000126002702A920460195CDE902234FF442
:104368008052CDE904670AF02DFC642004F018F9A6
:1043780002A94FF480522046CDE90467022610278F
:10438800CDE902670AF01EFC0322102302A9204689
:10439800CDE9022300230422CDE904234FF48052FF
:1043A8000AF010FC40F23223042202A901931023E0
:1043B8002046CDE90223019A012305924FF4805249
:1043C80004930AF0FFFB40F6060120460AF01AFCA7
:1043D800284607B0F0BD00BFE84E03241C4B00225E
:1043E8001C494FF0400C30B5054689B00220596091
:1043F80007219A601A620124DA620A224FF4006ED9
:10440800DC6006922022CDE9000104200821CDE9D4
:10441800020103201021CDE9040108206946C3E9FF
:1044280004024FF4C072181DC3E906C24FF480524B
:10443800C3E909E20AF09CFB38B92846FFF782FF76
:10444800003818BF012009B030BD204609B030BD82
:10445800E44E032440410052614A0021D0B513685C
:104468008EB00A91002B40F0B9805E4B01214FF6C7
:1044780083700C2411600221D3F8D420002603276E
:1044880042F48052C3F8D420D3F8D42002F48052E6
:104498000092009AD3F8E02042F01002C3F8E0201E
:1044A800D3F8E02002F010020192019AD3F8E0203C
:1044B80042F04002C3F8E020D3F8E02002F04002C6
:1044C8000292029AD3F8E02042F00802C3F8E020F2
:1044D800D3F8E02002F008020392039AD3F8E02010
:1044E80042F48072C3F8E020D3F8E02002F480722E
:1044F8000492049AD3F8E02042F08002C3F8E02046
:10450800D3F8E02002F080020592059AD3F8E02063
:1045180042F02002C3F8E020D3F8E02002F02002A5
:104528000692069AD3F8E02042F00402C3F8E0208D
:10453800D3F8E0300C9403F0040307930323079A9D
:104548000B93CDE9080108A9274805F0AFFE48F20A
:104558003712022308A925480C94CDE90823CDE990
:104568000A6705F0A3FE4CF20372022308A920484B
:104578000C94CDE90823CDE90A6705F097FE40F2CF
:10458800FF62022308A91B480C94CDE90823CDE952
:104598000A6705F08BFE4FF60C72022308A916482D
:1045A8000C94CDE90823CDE90A6705F07FFE4FF6A4
:1045B8003F02022308A911480C94CDE90823CDE94C
:1045C8000A6705F073FE2022022308A90A480C9402
:1045D800CDE90A67CDE9082305F068FE0EB0D0BD25
:1045E800E04E0324004402580010025800180258F4
:1045F800000C025800200258001C025800140258EF
:104608002DE9F04FDFF8108406460D46144608F1F0
:1046180014002DED028B89B000AF02F08DFBD8F8A5
:10462800143073B3D8F81830D8F80490002B4369C5
:104638000BBF4FF0080A4FF0100A4FF0020B4FF073
:10464800040BB9F1000F2AD0A200EA46012B02F1AF
:10465800070222F00702ADEB020D6846ADEB020D32
:10466800694600F03F81022B00F0D680002B6FD006
:104678002246C847D5462437BD46BDEC028BBDE867
:10468800F08FD8F81830002BF5D0D8F804904FF0F8
:10469800080A4FF0020B4369B9F1000FD4D1FB614E
:1046A800D8F80030BB61002BE5D0D54802F0B6FB46
:1046B8006B46BBF1020F786108EE103AFB6900F017
:1046C80083816A465146A2EBC40295466200EA46D7
:1046D800B2FBFBF2AAEBC40085460AEB8200EE4669
:1046E800F861ADEB010DF8690EEB820CC7F810C04C
:1046F800EC46ADEB010D00EB8201CCF80400CCF8E0
:10470800081001EB82013869E946CCF80C1000EB7F
:104718008201CCF800A001EB8202C9E900E0C9E9F6
:104728000212012B00F06483022B00F06C82002B34
:1047380000F08081620849466046BB69984718EED8
:10474800103A24379D46BD46BDEC028BBDE8F08F7C
:10475800002C8DD01A46D8ED0B6A9FEDB27A8446AC
:10476800331D36F922E00CF1080C07EE90EA33F914
:1047780022E00232F8EEE77A944267EE877A67EE33
:10478800A67A4CED027A07EE90EAF8EEE77A67EE41
:10479800877A67EEA67A4CED017AE2D8F96122466B
:1047A800C847984ED8ED046A0020F9692B1D9FED83
:1047B8009E7A9FED9E6ADFED9E5A22E0F4EEC67A5D
:1047C800F1EE10FAC0F2C88447F6FE72D1ED017A14
:1047D80045F8202066EEA77AF4EEC77AF1EE10FAD3
:1047E80040F2F080F4EEC67AF1EE10FAC0F2D58409
:1047F80047F6FE7243F820200230083184427FF6E3
:1048080039AFD1ED007A66EEA77AF4EEC77AF1EE09
:1048180010FAD3D83246D9E7002C3FF429AFD8EDA7
:104828000B6A84469FED787A0022331D8E4656F82F
:1048380022100CF1080C07EE901A53F822100232DD
:10484800F8EEE77A944267EE877A67EEA67A4CED3F
:10485800027A07EE901AF8EEE77A67EE877A67EE43
:10486800A67A4CED017AE2D871462246C7F81CE0D8
:10487800C847664ED8ED046A0020F9692B1D9FEDE4
:104888006A7A9FED6A6ADFF894C120E0F4EEC67A8E
:10489800F1EE10FAC0F279843246D1ED017A45F88A
:1048A800202066EEA77AF4EEC77AF1EE10FA40F20D
:1048B8008780F4EEC67AF1EE10FAC0F25E843246D2
:1048C80043F820200230083184427FF6D3AED1ED80
:1048D800007A66EEA77AF4EEC77AF1EE10FAD5D828
:1048E8006246DAE7002C3FF4C3AED8ED0B6A864681
:1048F8009FED477A4FF0000C331D56F82C200EF12F
:10490800080E82F40002A2F5000207EE902A53F87E
:104918002C200CF1020CF8EEE77A82F400026445D0
:10492800A2F5000267EE877A67EEA67A4EED027A64
:1049380007EE902AF8EEE77A67EE877A67EEA67AAE
:104948004EED017AD9D8F9612246C847314ED8EDE3
:10495800046A0020F9692B1D9FED337A9FED336AB5
:10496800DFF8BCC01FE0F4EEC67AF1EE10FAC0F230
:10497800FC833246D1ED017A45F8202066EEA77A0D
:10498800F4EEC77AF1EE10FA18D9F4EEC67AF1EE21
:1049980010FAC0F2DA83324643F820200230083198
:1049A80084427FF667AED1ED007A66EEA77AF4EE20
:1049B800C77AF1EE10FAD6D86246DBE76246EBE733
:1049C80062467DE7324615E7A100D6466208073100
:1049D80021F00701ADEB010DEA46ADEB010D69468B
:1049E800ADEB0E0D0AEB8200EC46ADEB0E0D01EBC4
:1049F8008202F861E946CCE900A0C9E9001290E614
:104A0800344F03240280FFFF000000300082FF7F44
:104A18000000003482FF7F001C4F0324007E0080CA
:104A28007E0080FF0000003804FF7FBF04FF7F3F47
:104A380000FEFF46002C00F0C982BBF1020FD8F837
:104A4800202000F0FA827969C7F8049002EB810E01
:104A58005FED0C5A8A00DCF808100EF104007A6148
:104A68001A46DCF80C303B61331DD7F810903D61D5
:104A7800FD69C7E902CB8C46834636F92210D8ED8A
:104A88000B7A06EE101A33F9221006EE901A3EF948
:104A98002210B8EEC66A07EE101AF8EEE66A3BF97D
:104AA8002210B8EEC77A26EE256A66EEA56A27EECA
:104AB800257A26EE276A66EEA76A27EE277A07EE9A
:104AC800901A51080232F8EEE77A0AEB8100944214
:104AD80080ED006A05EB810067EEA57AC0ED006AFB
:104AE8000CEB810009EB810180ED007A98ED0B7ADF
:104AF80067EE877AC1ED007ABFD8D7F804903D6990
:104B0800D7E902CB60466208BB6949469847D8F89E
:104B180028307A69D8ED046A1A441FED3D7A1FEDF2
:104B28003D6A2B1D904602F1040A5FED3F5A0022B0
:104B3800A84ED9E900EC51E0F4EEC67AF1EE10FA8D
:104B4800C0F2C78247F6FE7045F822000CEB010060
:104B5800D0ED007A66EEA77AF4EEC77AF1EE10FA95
:104B68004BD9F4EEC67AF1EE10FAC0F2BA8247F6E3
:104B7800FE70BBF1020F43F822002BD0D9F80800D1
:104B88000844D0ED007A66EEA77AF4EEC77AF1EE23
:104B980010FA36D9F4EEC67AF1EE10FAC0F2CD82E8
:104BA80047F6FE7048F82200D9F80C000144D1ED10
:104BB800007A66EEA77AF4EEC77AF1EE10FA1ED9FB
:104BC800F4EEC67AF1EE10FAC0F2AF8247F6FE7143
:104BD8004AF82210023294427FF6B1AD51080EEB2A
:104BE80081008900D0ED007A66EEA77AF4EEC77AE4
:104BF800F1EE10FAA0D83046A6E73046B9E73146BC
:104C0800E6E73046CEE7002C00F0E081BBF1020F6A
:104C1800D8F8203000F0E1817A69DCF8081003EB5D
:104C2800820EC7F804909300DFED6B5A0EF1040072
:104C380000227B61DCF80C303B61331DD7F8109003
:104C48003D61FD69C7E902CB8C46834656F82210C0
:104C5800D8ED0B7A07EE101A53F82210B8EEC76A8F
:104C680007EE101A5EF82210F8EEC76A07EE101A5F
:104C780026EE256A5BF82210B8EEC77A66EEA56ABA
:104C880026EE276A27EE257A66EEA76A27EE277AA8
:104C980007EE901A51080232F8EEE77A0AEB810023
:104CA800944280ED006A05EB810067EEA57AC0EDBD
:104CB800006A0CEB810009EB810180ED007A98ED28
:104CC8000B7A67EE877AC1ED007ABFD8D7F80490DF
:104CD8003D69D7E902CB60466208BB6949469847F7
:104CE800D8F828307A69D8ED046A1A449FED3E7ADC
:104CF8009FED3E6A131D9246DFF8E4C00022FB6177
:104D08002B1D364ED9E9008E4EE0F4EEC67AF1EE50
:104D180010FAC0F2FC81304645F822000EEB010083
:104D2800D0ED007A66EEA77AF4EEC77AF1EE10FAC3
:104D380049D9F4EEC67AF1EE10FAC0F2EF813046A6
:104D4800BBF1020F43F822002AD0D9F80800084422
:104D5800D0ED007A66EEA77AF4EEC77AF1EE10FA93
:104D680035D9F4EEC67AF1EE10FAC0F2C9813046B0
:104D78004AF82200D9F80C000144D1ED007A66EE19
:104D8800A77AF4EEC77AF1EE10FA1ED9F4EEC67AD5
:104D9800F1EE10FAC0F2AD813146F86940F8221000
:104DA800023294427FF6CBAC510808EB81008900AF
:104DB800D0ED007A66EEA77AF4EEC77AF1EE10FA33
:104DC800A3D86046A8E76046BAE76146E5E76046CB
:104DD800CEE700BF0280FFFF000000300082FF7FA7
:104DE800007E00800000003404FF7FBF04FF7F3F87
:104DF800002C00F0EB807A690021D8F82030C7F841
:104E0800109003EB820ED7F81C909300FD610EF111
:104E180004021FED0C6A7B61331D154656F82120EC
:104E28004808D8ED0B6ABBF1020F82F40002A2F524
:104E3800000207EE902A53F8212082F40002B8EE0F
:104E4800E77AA2F5000227EE067A07EE902A0AEB27
:104E58008002F8EEE77A27EE267A67EE867A82ED08
:104E6800007A09EB80024FEA800067EEA67AC2ED6D
:104E7800007A27D05EF8212082F40002A2F5000211
:104E880007EE902A55F8212082F40002B8EEE77A5E
:104E9800A2F5000227EE067A07EE902ADCF8082031
:104EA800F8EEE77A024427EE267A67EE867A82EDF4
:104EB800007A98ED0B7ADCF80C2067EE877A0244CA
:104EC800C2ED007A02318C42A8D8D7F8109060461B
:104ED8006208BB694946FD699847D8F828307A695D
:104EE800D8ED046A1A441FED407A1FED406A131D7D
:104EF8009246DFF8C4C20022FB612B1DAB4ED9E9F4
:104F0800008E4EE0F4EEC67AF1EE10FAC0F2C580DB
:104F1800304645F822000EEB0100D0ED007A66EE2F
:104F2800A77AF4EEC77AF1EE10FA49D9F4EEC67A08
:104F3800F1EE10FAC0F2BF803046BBF1020F43F821
:104F480022002AD0D9F808000844D0ED007A66EE8D
:104F5800A77AF4EEC77AF1EE10FA35D9F4EEC67AEC
:104F6800F1EE10FAC0F2AE8030464AF82200D9F8C5
:104F78000C000144D1ED007A66EEA77AF4EEC77A08
:104F8800F1EE10FA1ED9F4EEC67AF1EE10FAC0F27C
:104F98008B803146F86940F82210023294427FF63D
:104FA800CEAB510808EB81008900D0ED007A66EE9F
:104FB800A77AF4EEC77AF1EE10FAA3D86046A8E70C
:104FC8006046BAE76146E5E76046CEE722464946CD
:104FD8006046BB699847FFF7B2BBC7F810B000221C
:104FE80098ED0B6A331DDFED726AD7F81CB078694B
:104FF80056F8221007EE901A53F82210B8EEE77A06
:1050080007EE901A51080232F8EEE77A27EE267A70
:105018000AEB810E94420BEB810167EEA67A27EE2C
:10502800067A67EE867A8EED007AC1ED007ADFD8CF
:105038008300D7F810B07B614DE61A46C7F810B068
:1050480098ED0B6A331DDFED5B6AD7F81CB0786901
:1050580036F9221007EE101A33F9221007EE901ACB
:10506800B8EEC77A51080232F8EEE77A27EE267AC8
:105078000AEB810E94420BEB810167EEA67A27EECC
:10508800067A67EE867A8EED007AC1ED007ADFD86F
:105098008300D7F810B07B6134E5F0EE675AFEEE76
:1050A800E45A15EE900A34E7F0EE675AFEEEE45A39
:1050B80015EE901A6EE7F0EE675AFEEEE45A15EE1A
:1050C800900A3AE7F0EE675AFEEEE45A15EE900AB7
:1050D8004BE767EEA57AFDEEE77A17EE900A00B285
:1050E80032E567EEA57AFDEEE77A17EE900A00B290
:1050F8003FE5F0EE675AFEEEE05A15EE901A4CE6E0
:10510800F0EE675AFEEEE05A15EE900A30E6F0EE41
:10511800675AFEEEE05A15EE900AFDE5F0EE675A82
:10512800FEEEE05A15EE900A0AE667EEA57AFDEE65
:10513800E77A17EE901A09B24AE567EEA57AFDEE0E
:10514800E77A17EE900A00B22CE5F0EE675AFEEE09
:10515800E45A15EE902A1FE467EEA57AFDEEE77A89
:1051680017EE902A12B2FFF731BBF0EE675AFEEE47
:10517800E45A15EE902AFFF7FDBBF0EE675AFEEEF3
:10518800E05A15EE902AFFF79BBBF0EE675AFEEE49
:10519800E05A15EE902AFFF780BB67EEA57AFDEE80
:1051A800E77A17EE902A12B2FFF724BB82FF7F003E
:1051B80000000030000000387E0080FF30B5154C3C
:1051C800154685B0046004F1080C01AB07C98CE8EA
:1051D8000700D4ED047AF5EEC07A83E80700F1EE13
:1051E80010FA14DDF7EE006A86EEA77A84ED0B7AE2
:1051F8006DB1204640F8145F01F09EFD0649036931
:105208000020064AE1616262E36005B030BD01201A
:1052180005B030BD1C4F03240020003000000030D2
:1052280000680830704700BFB1F5807F03680A4600
:1052380028BF4FF48072B1F5807F9A6094BF002038
:10524800012070470068143001F0D6BD30B50468FD
:1052580083B00D46A3694BB1A3680020A26A216AF6
:105268009B00009004F1180001F068FDA36807484E
:10527800626A9B00E169009004F1140001F05EFD90
:105288000020C4E9005003B030BD00BF0946000843
:10529800024B0022C3E90522704700BF1C4F0324BC
:1052A800F6EE006A4FF0000C60EE207A0160B7EE6F
:1052B800007A0021C0F80CC067EEA67A80ED020AD9
:1052C80080ED047AC0F814C0C7EE276A02764376E8
:1052D8008176C0ED070AC0ED016A70470268037E57
:1052E800128807EE902AFBEEC87A1BB1B7EE007A57
:1052F80077EE677AD0ED056A90ED047A77EEE67A74
:10530800437E67EE877A0BB1F1EE677A90ED030A78
:1053180090ED017A77EEC07AA7EE270A80ED030AAE
:10532800704700BF30B52DED028B83B004460123D2
:105338001546ADF804101730BDF80410B0EE408AD9
:105348000180637600F0CCFBB5FA85F300220021DA
:105358005B092575A16084ED048AA5756375C4E9A8
:10536800002203B0BDEC028B30BD00BF20EE007AF6
:10537800DFED067A27EE000A60EE277A80ED020A52
:10538800FCEEE77AC0ED017A704700BF00FF7F4767
:1053980090ED046AB7EE007ADFED0E5A0346D0EDC1
:1053A800036AC5EE867A77EEA67AF4EEC77AF1EE4E
:1053B80010FAC8BF77EEC77A90ED027AB4EEE77AB2
:1053C800C0ED037A1730F1EE10FACCBF597D997D04
:1053D80000F070BC0000F042DFED167A8C46B4EEA7
:1053E800670A10B504468646F1EE10FA2DED028BD9
:1053F80080ED080A48BFB0EE670AC0ED090AB0EEB2
:10540800608A80F83420BCE80F00AEE80F009CE802
:105418000F008EE80F000EF06FFFF0EE407AB0EE4E
:10542800480AC4ED0A7A0EF067FF84ED0B0ABDEC5A
:10543800028B10BD95BFD63390F83430B0EE407A69
:1054480010B50446032B3DD8DFE803F0202D1302E6
:1054580020EE000AD0ED087AD0ED096A20EE077A2E
:1054680076EEE76AE7EE267AB0EE670AC4ED0C7AC4
:1054780010BD90ED0A0AD0ED0B7A77EEC07AA7EE50
:10548800870A0EF0C7FE84ED0C0A10BDD0ED087A2D
:10549800D0ED096A76EEE76AE6EE807AB0EE670A42
:1054A800C4ED0C7A10BDD0ED087A20EE007AD0ED6C
:1054B800096A76EEE76AE7EE267AB0EE670AC4ED87
:1054C8000C7A10BD90ED0C0A10BD00BF82B04FF0F1
:1054D800000C0323ADF80410BDF8042080F810C0B8
:1054E8000280438002B070472DE9F04FBE4E002580
:1054F8008FB0BE4C037006F140034260074601922C
:105508008846202229463046C4F85831C4F85461E8
:10551800CDE90355CDE90555CDE90755CDE909553F
:10552800CDE90B550FF088FB2022294604F5997028
:10553800C4F82151C4F82551C4F82951C4F82D5193
:105548000FF07AFB019B84F8385284F820317A688E
:10555800002A5FD02B464146B64604F59075994619
:105568004FF0010A03EB0310D1F800B0D1F8048022
:105578000133D1F808C02218CE6844F800B0C2F848
:105588000480C2F808C0D660087C2EF8029B10740C
:105598000A7C05F8012F002A69D07A68113184F84D
:1055A80038A29A42DED84FF4802291489DF8043000
:1055B80008214FF000084FF00009C4F874310023A7
:1055C800C4E957020122C4F8643184F87031C4E98F
:1055D8005A2194F83812C4E9608981B3C4F8882143
:1055E800002284F8713184F878313B78C4E9632269
:1055F800A3B3012200200121013B84F89421C4E9CE
:105608006801082B2CD8DFE803F0ABB0B5BABFC4EB
:10561800C9CFD6009DF804300121C4F86421C4F82C
:1056280074314FF4802384F87021714AC4E95723F8
:1056380008230022C4E95A130023C4E96023012384
:10564800002284F87131002384F878310323C4F8E8
:1056580088313B78C4E96322002BCAD184F894319D
:10566800644803F0D5FB034638B1FFBEFEE77A680D
:1056780011319A423FF676AF95E703A95D48039347
:1056880003F024FD0546002868D1022240F2FF738A
:10569800CDE9082300230422CDE90A2394F8203118
:1056A800002B00F0D5804FF0060921E0022B00F016
:1056B8008980012B40F0C4809AF80130012B00F05A
:1056C800C180002B4C4B18BF002306A94948CDE9DF
:1056D800063902F0C9FF002840F0BF80013594F870
:1056E8002031EDB2AB4240F2B380444B53F82590E1
:1056F8002FB207EB071704EB070A504600F0F0F942
:1057080005EB051323441B7C042B7DDC022B00F3E3
:10571800918000F08D806319002283F81021E35DE9
:10572800002BC3D19AF80130062B00F08580072B97
:1057380000F08A80022B00F09680032B00F0958001
:10574800002B00F09680012B00F09180042B00F0D4
:105758009280052B2A4B18BF0023B6E7FFBEFEE751
:1057680003224023C4E966237AE707226023C4E9B9
:10577800662375E70F228023C4E9662370E71F229A
:10578800A023C4E966236BE73F22C023C4E966234C
:1057980066E77F22E023C4E9662361E7FF224FF42E
:1057A8008073C4E966235BE740F2FF124FF49073FD
:1057B800C4E9662354E740F2FF324FF4A073C4E90A
:1057C80066234DE79AF80130042B37D0052B3DD0DE
:1057D800002B40D0012B42D0022B42D0032B094B87
:1057E80018BF002371E700BF00400030504F03246A
:1057F80000200240AC5003240002B025B851010833
:105808000000B84F0020903603233E1D04EB050826
:105818004FF0000B264488F8103130460BF1010B8D
:1058280000F05EF998F8103104365B45F5DC76E750
:105838000123EAE70223E8E7104B46E7104B44E769
:10584800002342E70F4B40E70F4B3EE70F4B3CE787
:105858000FB0BDE8F08F0E4B37E7FFBEFEE70D4BEC
:1058680033E70D4B31E70D4B2FE70D4B2DE70D4B74
:105878002BE70D4B29E70D4B27E700BF0800900CDD
:105888001000C0102000F0148000501D000180217D
:105898000004002A0008302E001060320040C03A90
:1058A8000080F03E00005247000021430000844B76
:1058B80038B5094C40F2FF724FF0011104F5AE758E
:1058C800284603F0B1FB94F82021D4F85411284657
:1058D800BDE8384003F01CB9504F0324034B0F298F
:1058E800D3F8540198BF00EB41007047504F032490
:1058F800214B02689A4200D07047204A0023204872
:10590800D2F8D81030B51F4C41F0200183B0C4F84C
:10591800C001092004F5E075C4E971034FF4806003
:10592800C2F8D810D2F8D8204FF40061C4E9733017
:1059380094F8380202F02002C4F8D4114FF4005150
:10594800984201922846C4F8D811C4E97833019BDB
:1059580014BF00234FF48073C4F8DC3103F0DCFD7E
:1059680008B1FFBEFEE704F5AE73C4F8A851C4F849
:10597800F83103B030BD00BF002002400044025897
:1059880040000240504F0324014804F03DB900BFD5
:105998001051032402682DE9F84F4B4B9A4201D06D
:1059A800BDE8F88F494D95F83832002BF8D095F8B6
:1059B8002031002B77D0002405F10C0905F59976E4
:1059C80005F59077A04613E003F0010117F811BC24
:1059D800A9F1080000F06EF9BBF1010F25D895F880
:1059E8002031013409F111090236A2B293422BD9B0
:1059F80017F8012F002AF4D0D5F854310021327855
:105A080033F81400D5F8583103EB041323F81200C7
:105A1800338801339BB233805FFA83FA3A789A422B
:105A2800D2D88A46A6F80080D0E7CAF34001A9F187
:105A3800040000F03FF9BBF1020FCAF38001CED099
:105A4800484600F037F9CAE7002395F8380220499C
:105A580009229842C5F8C8314FF48060C5F8C011D2
:105A6800C5F8C4214FF400614FF40052C5F8CC3199
:105A780008BF4FF48073C5F8D821C5E97401002226
:105A88001448C5E97732C5F8E42103F045FD08B1AB
:105A9800FFBEFEE795F82021D5F854110E48BDE861
:105AA800F84F03F035B80A4909224FF48060C5F869
:105AB800C831C5E970124FF400614FF40052C5E9CE
:105AC8007330C5E97512DAE700200240504F03240D
